:020000040800F2
:100000000028002031110008C1100008C7100008A6
:10001000CD100008D3100008D9100008000000001F
:10002000000000000000000000000000DF100008D9
:10003000EB10000800000000F71000080311000892
:100040007911000879110008791100087911000868
:100050007911000879110008791100087911000858
:100060007911000879110008791100087911000848
:100070007911000879110008791100087911000838
:100080007911000879110008791100087911000828
:100090007911000879110008791100087911000818
:1000A0007911000879110008791100087911000808
:1000B00011110008791100080000000079110008F2
:1000C000791100080000000000000000791100080C
:1000D00000000000791100087911000800000000FC
:1000E000791100087911000879110008000000005A
:1000F0000000000000000000000000000000000000
:0C01000000000000000000005FF808F1A3
:10010C0010B5054C237833B9044B13B10448AFF345
:10011C0000800123237010BD30000020000000007F
:10012C007C27000808B5034B1BB103490348AFF308
:10013C00008008BD00000000340000207C2700086F
:10014C0080B500AF01F014F800F06AF800F0A4F8E4
:10015C0000F0EEF82A4801F053FF642000F0AEFEE8
:10016C00642000F0BFFE192000F0D0FE012000F04A
:10017C00E1FE244B1B68012B0AD1642000F09EFE8B
:10018C001021214801F0F6FA20211F4801F0F2FA63
:10019C001E4B1B68012B06D1642000F0A3FE00F05F
:1001AC002DF900F081FB1A4B1B68012B11D1192082
:1001BC0000F0ACFE174B1B685A1C16490A60184617
:1001CC0000F0DCFA134B1B68042B02D1114B0022FC
:1001DC001A60114B1B68012BCBD1012000F0AAFE39
:1001EC000E4B1B685A1C0D490A60184600F00CFE99
:1001FC000A4B1B68082BBCD1084B00221A60B8E7CD
:10020C007400002054000020000801405C00002015
:10021C00640000204C0000206C00002050000020E6
:10022C0080B590B000AF07F11803282200211846C2
:10023C0002F096FA3B1D00221A605A609A60DA604E
:10024C001A610223BB610123BB621023FB620023F2
:10025C007B6307F11803184601F0A6FA0346002B3E
:10026C0001D000F0C5F80F237B600023BB60002396
:10027C00FB6000233B6100237B613B1D0021184682
:10028C0001F012FD0346002B01D000F0B1F800BFC5
:10029C004037BD4680BD000080B586B000AF07F189
:1002AC00080300221A605A609A60DA603B4600220A
:1002BC001A605A601D4B4FF080421A601B4B41F67E
:1002CC003F725A60194B00229A60184B0922DA606F
:1002DC00164B00221A61154B00229A61134801F04B
:1002EC003FFE0346002B01D000F082F84FF4805300
:1002FC00BB6007F1080319460C4801F0BDFF03462B
:10030C00002B01D000F074F800233B6000237B60CD
:10031C003B461946054802F095F90346002B01D0DF
:10032C0000F066F800BF1837BD4680BD7400002091
:10033C0080B586B000AF07F1080300221A605A603E
:10034C009A60DA60224B9B69214A43F00403936163
:10035C001F4B9B6903F004037B607B681C4B9B6900
:10036C001B4A43F008039361194B9B6903F0080384
:10037C003B603B6800224FF6FC71164801F0E2F935
:10038C0000224FF67F71144801F0DCF94FF6FC7334
:10039C00BB600123FB6000233B6102237B6107F1FF
:1003AC00080319460B4801F053F84FF67F73BB60F6
:1003BC000123FB6000233B6102237B6107F10803EF
:1003CC001946054801F044F800BF1837BD4680BDFA
:1003DC000010024000080140000C014080B582B0C2
:1003EC0000AF786000F0BAFD00BF0837BD4680BD95
:1003FC0080B400AF72B600BFFEE7000080B400AF5F
:10040C00134B1B680133124A1360114B1B683B2BB7
:10041C0007DD0F4B00221A600E4B1B6801330D4A8F
:10042C0013600C4B1B683B2B07DD0A4B00221A6038
:10043C00094B1B680133084A1360074B1B68172BC9
:10044C0002DD054B00221A6000BFBD4680BC704720
:10045C0008000020040000200000002080B582B0BD
:10046C0000AF78607B68092B00F2808101A252F802
:10047C0023F000BF81050008A9040008F10400085E
:10048C0039050008C90500081106000859060008BE
:10049C00A1060008E9060008310700080122012125
:1004AC00B54801F04FF900220221B34801F04AF996
:1004BC0000220421B04801F045F901220821AE4880
:1004CC0001F040F901221021AB4801F03BF9012267
:1004DC002021A94801F036F901224021A64801F05B
:1004EC0031F944E100220121A34801F02BF900224B
:1004FC000221A14801F026F9012204219E4801F0B5
:10050C0021F9002208219C4801F01CF9002210213D
:10051C00994801F017F901222021974801F012F9AE
:10052C0000224021944801F00DF920E10022012124
:10053C00914801F007F9002202218F4801F002F9DD
:10054C00002204218C4801F0FDF8002208218A4881
:10055C0001F0F8F801221021874801F0F3F801228C
:10056C002021854801F0EEF800224021824801F05C
:10057C00E9F8FCE0002201217F4801F0E3F80022B9
:10058C0002217D4801F0DEF8002204217A4801F0B6
:10059C00D9F800220821784801F0D4F80022102163
:1005AC00754801F0CFF800222021734801F0CAF8F9
:1005BC0001224021704801F0C5F8D8E00122012148
:1005CC006D4801F0BFF8002202216B4801F0BAF827
:1005DC0000220421684801F0B5F801220821664880
:1005EC0001F0B0F801221021634801F0ABF80022B1
:1005FC002021614801F0A6F8002240215E4801F05C
:10060C00A1F8B4E0002201215B4801F09BF8012223
:10061C000221594801F096F800220421564801F0B5
:10062C0091F800220821544801F08CF80122102185
:10063C00514801F087F8002220214F4801F082F840
:10064C00002240214C4801F07DF890E0002201216D
:10065C00494801F077F801220221474801F072F86D
:10066C0000220421444801F06DF800220821424880
:10067C0001F068F8002210213F4801F063F80022D5
:10068C0020213D4801F05EF8002240213A4801F05B
:10069C0059F86CE000220121374801F053F8002290
:1006AC000221354801F04EF800220421324801F0B5
:1006BC0049F801220821304801F044F801221021A8
:1006CC002D4801F03FF8012220212B4801F03AF887
:1006DC0001224021284801F035F848E00022012190
:1006EC00254801F02FF800220221234801F02AF8B6
:1006FC0000220421204801F025F8002208211E4880
:10070C0001F020F8002210211B4801F01BF80022F8
:10071C002021194801F016F800224021164801F05A
:10072C0011F824E000220121134801F00BF80022FB
:10073C000221114801F006F8002204210E4801F0B4
:10074C0001F8002208210C4800F0FCFF01221021C6
:10075C00094800F0F7FF00222021074800F0F2FFC3
:10076C0000224021044800F0EDFF00E000BF00BF74
:10077C000837BD4680BD00BF000C014080B582B07B
:10078C0000AF78607B68032B00F2848001A252F8E2
:10079C0023F000BFB1070008ED0700082908000886
:1007AC0065080008002240213D4800F0CBFF0122E3
:1007BC0080213B4800F0C6FF01224FF4807138487D
:1007CC0000F0C0FF01224FF40071354800F0BAFF71
:1007DC00344A7B6852F823301846FFF73FFE5AE044
:1007EC00012240212E4800F0ADFF002280212C4830
:1007FC0000F0A8FF01224FF48071294800F0A2FFFD
:10080C0001224FF40071264800F09CFF254A7B68BA
:10081C0052F823301846FFF721FE3CE0012240211C
:10082C001F4800F08FFF012280211D4800F08AFF35
:10083C0000224FF480711A4800F084FF01224FF41B
:10084C000071174800F07EFF164A7B6852F823307F
:10085C001846FFF703FE1EE001224021104800F06D
:10086C0071FF012280210E4800F06CFF01224FF431
:10087C0080710B4800F066FF00224FF400710848AD
:10088C0000F060FF074A7B6852F823301846FFF7E8
:10089C00E5FD00E000BF00BF0837BD4680BD00BFCE
:1008AC00000801400C00002080B400AF294B1B68ED
:1008BC00092B06DC284B00221A60264B1B68264AA3
:1008CC005360244B1B68092B18DD224B1B68234AF1
:1008DC0082FB03129210DB17D31A1F4A13601D4BB5
:1008EC0019681E4B83FB01239A10CB17D21A13469F
:1008FC009B0013445B00CA1A174B5A60184B1B68B9
:10090C00092B06DC144B00229A60154B1B68124A0B
:10091C00D360134B1B68092B18DD114B1B680F4A56
:10092C0082FB03129210DB17D31A0B4A93600C4B09
:10093C0019680A4B83FB01239A10CB17D21A134662
:10094C009B0013445B00CA1A034BDA6000BFBD4620
:10095C0080BC7047000000200C00002067666666B3
:10096C000400002080B582B000AF78607B6803F093
:10097C000103002B0CBF01230023DBB21A464FF4FA
:10098C0000413E4800F0DEFE7B685B107B607B68BC
:10099C0003F00103002B0CBF01230023DBB21A462A
:1009AC004FF48041354800F0CDFE7B685B107B60D6
:1009BC007B6803F00103002B0CBF01230023DBB287
:1009CC001A464FF400512D4800F0BCFE7B685B10BA
:1009DC007B607B6803F00103002B0CBF0123002319
:1009EC00DBB21A464FF48051244800F0ABFE7B6812
:1009FC005B107B607B6803F00103002B0CBF0123B1
:100A0C000023DBB21A464FF400611C4800F09AFE3A
:100A1C007B685B107B607B6803F00103002B0CBFD1
:100A2C0001230023DBB21A464FF48061134800F017
:100A3C0089FE7B685B107B607B6803F00103002BF5
:100A4C000CBF01230023DBB21A4608210B4800F02F
:100A5C0079FE7B685B107B607B6803F00103002BE5
:100A6C000CBF01230023DBB21A460421034800F01B
:100A7C0069FE00BF0837BD4680BD00BF00080140BD
:100A8C0080B582B000AF786039607B68072B00F2CC
:100A9C00B38101A252F823F0C50A00082D0B0008FF
:100AAC00950B0008FD0B0008650C0008CD0C000828
:100ABC00350D00089D0D000800224FF48071D148BF
:100ACC0000F040FE01224FF40071CE4800F03AFED7
:100ADC0001224FF48061CB4800F034FE01224FF428
:100AEC000061C84800F02EFE01224FF48051C54829
:100AFC0000F028FE01224FF40051C24800F022FE03
:100B0C0001224FF48041BF4800F01CFE01224FF43B
:100B1C000041BC4800F016FE3868FFF723FF6CE17B
:100B2C0001224FF48071B74800F00CFE00224FF404
:100B3C000071B44800F006FE01224FF48061B14808
:100B4C0000F000FE01224FF40061AE4800F0FAFD07
:100B5C0001224FF48051AB4800F0F4FD01224FF418
:100B6C000051A84800F0EEFD01224FF48041A54849
:100B7C0000F0E8FD01224FF40041A24800F0E2FD34
:100B8C003868FFF7EFFE38E101224FF480719D4881
:100B9C0000F0D8FD01224FF400719A4800F0D2FD0C
:100BAC0000224FF48061974800F0CCFD01224FF4F5
:100BBC000061944800F0C6FD01224FF48051914829
:100BCC0000F0C0FD01224FF400518E4800F0BAFD38
:100BDC0001224FF480418B4800F0B4FD01224FF408
:100BEC000041884800F0AEFD3868FFF7BBFE04E119
:100BFC0001224FF48071834800F0A4FD01224FF4D0
:100C0C000071804800F09EFD01224FF480617D4808
:100C1C0000F098FD00224FF400617A4800F092FD3C
:100C2C0001224FF48051774800F08CFD01224FF4E3
:100C3C000051744800F086FD01224FF48041714848
:100C4C0000F080FD01224FF400416E4800F07AFD67
:100C5C003868FFF787FED0E001224FF480716948B5
:100C6C0000F070FD01224FF40071664800F06AFD3F
:100C7C0001224FF48061634800F064FD01224FF4BF
:100C8C000061604800F05EFD00224FF480515D4829
:100C9C0000F058FD01224FF400515A4800F052FD6B
:100CAC0001224FF48041574800F04CFD01224FF4D3
:100CBC000041544800F046FD3868FFF753FE9CE0B5
:100CCC0001224FF480714F4800F03CFD01224FF49B
:100CDC0000714C4800F036FD01224FF48061494808
:100CEC0000F030FD01224FF40061464800F02AFD6F
:100CFC0001224FF48051434800F024FD00224FF4B0
:100D0C000051404800F01EFD01224FF480413D4847
:100D1C0000F018FD01224FF400413A4800F012FD9A
:100D2C003868FFF71FFE68E001224FF480713548E8
:100D3C0000F008FD01224FF40071324800F002FD72
:100D4C0001224FF480612F4800F0FCFC01224FF48B
:100D5C0000612C4800F0F6FC01224FF48051294828
:100D6C0000F0F0FC01224FF40051264800F0EAFCA0
:100D7C0000224FF48041234800F0E4FC01224FF4A0
:100D8C000041204800F0DEFC3868FFF7EBFD34E052
:100D9C0001224FF480711B4800F0D4FC01224FF467
:100DAC000071184800F0CEFC01224FF48061154808
:100DBC0000F0C8FC01224FF40061124800F0C2FCA4
:100DCC0001224FF480510F4800F0BCFC01224FF47B
:100DDC0000510C4800F0B6FC01224FF48041094848
:100DEC0000F0B0FC00224FF40041064800F0AAFCD1
:100DFC003868FFF7B7FD00E000BF00BF0837BD46FD
:100E0C0080BD00BF000C014080B582B000AF78609F
:100E1C007B68072B4AD801A252F823F0490E000830
:100E2C00570E0008650E0008730E0008810E0008AE
:100E3C008F0E00089D0E0008AB0E00081E4B1B7891
:100E4C0019460020FFF71CFE31E01B4B5B7819465E
:100E5C000120FFF715FE2AE0174B9B78194602205C
:100E6C00FFF70EFE23E0144BDB7819460320FFF747
:100E7C0007FE1CE0104B1B7919460420FFF700FEFF
:100E8C0015E00D4B5B7919460520FFF7F9FD0EE0D7
:100E9C00094B9B7919460620FFF7F2FD07E0064B3C
:100EAC00DB7919460720FFF7EBFD00E000BF00BF20
:100EBC000837BD4680BD00BF1C00002080B483B045
:100ECC0000AF7860054A7B681360054B00221A60FE
:100EDC0000BF0C37BD4680BC704700BF58000020D7
:100EEC005400002080B483B000AF7860054A7B6862
:100EFC001360054B00221A6000BF0C37BD4680BC46
:100F0C00704700BF600000205C00002080B483B0FC
:100F1C0000AF7860054A7B681360054B00221A60AD
:100F2C0000BF0C37BD4680BC704700BF6800002076
:100F3C006400002080B483B000AF7860054A7B6801
:100F4C001360054B00221A6000BF0C37BD4680BCF5
:100F5C00704700BF700000206C00002080B400AF10
:100F6C00214B1B68002B0BDD1F4B1B68013B1E4AE2
:100F7C0013601D4B1B68002B02DC1C4B01221A60FA
:100F8C001B4B1B68002B0BDD194B1B68013B184AD4
:100F9C001360174B1B68002B02DC164B01221A60E6
:100FAC00154B1B68002B0BDD134B1B68013B124AC6
:100FBC001360114B1B68002B02DC104B01221A60D2
:100FCC000F4B1B68002B0BDD0D4B1B68013B0C4AB8
:100FDC0013600B4B1B68002B02DC0A4B01221A60BE
:100FEC0000BFBD4680BC7047580000205400002054
:100FFC00600000205C0000206800002064000020DD
:10100C00700000206C00002080B485B000AF154B40
:10101C009B69144A43F001039361124B9B6903F0E3
:10102C000103BB60BB680F4BDB690E4A43F0805376
:10103C00D3610C4BDB6903F080537B607B680A4BFC
:10104C005B68FB60FB6823F0E063FB60FB6843F0CC
:10105C008063FB60044AFB68536000BF1437BD46D5
:10106C0080BC7047001002400000014080B584B085
:10107C0000AF78607B681B68B3F1804F13D10C4BC9
:10108C00DB690B4A43F00103D361094BDB6903F0C5
:10109C000103FB60FB68002200211C2000F0A1F979
:1010AC001C2000F0BAF900BF1037BD4680BD00BF50
:1010BC000010024080B400AFFEE780B400AFFEE742
:1010CC0080B400AFFEE780B400AFFEE780B400AFA1
:1010DC00FEE780B400AF00BFBD4680BC704780B453
:1010EC0000AF00BFBD4680BC704780B400AF00BFEE
:1010FC00BD4680BC704780B500AF00F07FF800BFE4
:10110C0080BD000080B500AF024800F0C5FF00BFF5
:10111C0080BD00BF7400002080B400AF00BFBD468E
:10112C0080BC7047FFF7F8FF0B480C490C4A0023B2
:10113C0002E0D458C4500433C4188C42F9D3094A81
:10114C00094C002301E013600432A242FBD301F0EE
:10115C00E3FAFEF7F5FF7047000000203000002096
:10116C00C027000830000020C0000020FEE700006F
:10117C0080B500AF084B1B68074A43F0100313609F
:10118C00032000F023F90F2000F008F8FFF73CFFD4
:10119C000023184680BD00BF0020024080B582B0FD
:1011AC0000AF7860124B1A68124B1B7819464FF43B
:1011BC007A73B3FBF1F3B2FBF3F3184600F03BF98F
:1011CC000346002B01D001230EE07B680F2B0AD8BD
:1011DC00002279684FF0FF3000F003F9064A7B6873
:1011EC001360002300E0012318460837BD4680BD7C
:1011FC00240000202C0000202800002080B400AF28
:10120C00054B1B781A46054B1B681344034A1360A5
:10121C0000BFBD4680BC70472C000020BC000020E5
:10122C0080B400AF024B1B681846BD4680BC7047AB
:10123C00BC00002080B485B000AF78607B6803F000
:10124C000703FB600C4BDB68BB60BA684FF6FF030F
:10125C001340BB60FB681A02BB68134343F0BF63C7
:10126C0043F40033BB60044ABB68D36000BF14373F
:10127C00BD4680BC704700BF00ED00E080B400AFFD
:10128C00044BDB681B0A03F007031846BD4680BC01
:10129C00704700BF00ED00E080B483B000AF0346A0
:1012AC00FB7197F90730002B0BDBFB7903F01F0266
:1012BC00064997F907305B09012000FA02F241F860
:1012CC00232000BF0C37BD4680BC704700E100E016
:1012DC0080B483B000AF03463960FB7197F90730D7
:1012EC00002B0ADB3B68DAB20C4997F90730120184
:1012FC00D2B20B4483F800230AE03B68DAB2084907
:10130C00FB7903F00F03043B1201D2B20B441A76A3
:10131C0000BF0C37BD4680BC704700BF00E100E049
:10132C0000ED00E080B489B000AFF860B9607A607D
:10133C00FB6803F00703FB61FB69C3F10703042B94
:10134C0028BF0423BB61FB690433062B02D9FB695C
:10135C00033B00E000237B614FF0FF32BB6902FAD4
:10136C0003F3DA43BB681A407B699A404FF0FF31B4
:10137C007B6901FA03F3D9437B680B40134318468E
:10138C002437BD4680BC704780B582B000AF786012
:10139C007B68013BB3F1807F01D301230FE00A4A44
:1013AC007B68013B53600F214FF0FF30FFF790FF3C
:1013BC00054B00229A60044B07221A600023184642
:1013CC000837BD4680BD00BF10E000E080B582B09C
:1013DC0000AF78607868FFF72DFF00BF0837BD4677
:1013EC0080BD80B586B000AF0346B9607A60FB73F0
:1013FC0000237B61FFF742FF78617A68B9687869EE
:10140C00FFF790FF024697F90F3011461846FFF789
:10141C005FFF00BF1837BD4680BD80B582B000AFFE
:10142C000346FB7197F907301846FFF735FF00BFED
:10143C000837BD4680BD80B582B000AF7860786853
:10144C00FFF7A2FF034618460837BD4680BD0000D3
:10145C0080B48BB000AF7860396000237B620023CE
:10146C003B6248E101227B6A02FA03F3FB613B68B1
:10147C001B68FA691340BB61BA69FB699A4240F078
:10148C0037813B685B68A34A93425ED0A14A934282
:10149C0075D8A14A934258D09F4A93426FD89F4A1D
:1014AC00934252D09D4A934269D89D4A93424CD064
:1014BC009B4A934263D89B4A934246D0994A9342A3
:1014CC005DD8122B2AD8122B59D801A252F823F02E
:1014DC00571500083115000843150008851500083C
:1014EC008B1500088B1500088B1500088B15000850
:1014FC008B1500088B1500088B1500088B15000840
:10150C008B1500088B1500088B1500088B1500082F
:10151C008B150008391500084D150008824A9342B6
:10152C0013D02CE03B68DB683B6229E03B68DB684E
:10153C0004333B6224E03B68DB6808333B621FE00A
:10154C003B68DB680C333B621AE03B689B68002B02
:10155C0002D104233B6213E03B689B68012B05D14D
:10156C0008233B627B68FA691A6109E008233B6235
:10157C007B68FA695A6103E000233B6200E000BF1C
:10158C00BB69FF2B01D87B6801E07B6804337B616E
:10159C00BB69FF2B02D87B6A9B0002E07B6A083B8D
:1015AC009B003B617B691A680F213B6901FA03F3CD
:1015BC00DB431A40396A3B6901FA03F31A437B692E
:1015CC001A603B685B6803F08053002B00F090803E
:1015DC00564B9B69554A43F001039361534B9B69EE
:1015EC0003F00103BB60BB68514A7B6A9B08023362
:1015FC0052F82330FB607B6A03F003039B000F223D
:10160C0002FA03F3DB43FA681340FB607B68494A38
:10161C0093420DD07B68484A934207D07B68474A77
:10162C00934201D1022304E0032302E0012300E0F2
:10163C0000237A6A02F0030292009340FA68134383
:10164C00FB603B497B6A9B080233FA6841F8232014
:10165C003B685B6803F48013002B06D0384B9A6808
:10166C003749BB6913438B6006E0354B9A68BB69FD
:10167C00DB43334913408B603B685B6803F4001316
:10168C00002B06D02E4BDA682D49BB691343CB6077
:10169C0006E02B4BDA68BB69DB4329491340CB606E
:1016AC003B685B6803F40033002B06D0244B5A686C
:1016BC002349BB6913434B6006E0214B5A68BB6955
:1016CC00DB431F4913404B603B685B6803F480337A
:1016DC00002B06D01A4B1A681949BB6913430B60CF
:1016EC0006E0174B1A68BB69DB43154913400B60C6
:1016FC007B6A01337B623B681A687B6A22FA03F3CC
:10170C00002B7FF4AFAE00BF00BF2C37BD4680BCB2
:10171C00704700BF00003210000031100000221092
:10172C0000002110000012100000111000100240E7
:10173C000000014000080140000C01400010014075
:10174C000004014080B483B000AF78600B467B800E
:10175C0013467B707B78002B03D07A887B681A61E8
:10176C0003E07B881A047B681A6100BF0C37BD4606
:10177C0080BC704780B485B000AF78600B467B802E
:10178C007B68DB68FB607A88FB6813401A04FB6893
:10179C00D9437B880B401A437B681A6100BF14370E
:1017AC00BD4680BC7047000080B586B000AF786045
:1017BC007B68002B01D101236CE27B681B6803F072
:1017CC000103002B00F08780924B5B6803F00C0345
:1017DC00042B0CD08F4B5B6803F00C03082B12D13D
:1017EC008C4B5B6803F48033B3F5803F0BD1894B92
:1017FC001B6803F40033002B6CD07B685B68002BF8
:10180C0068D1012346E27B685B68B3F5803F06D163
:10181C00804B1B687F4A43F4803313602EE07B6857
:10182C005B68002B0CD17B4B1B687A4A23F480330A
:10183C001360784B1B68774A23F4802313601DE0F8
:10184C007B685B68B3F5A02F0CD1724B1B68714A97
:10185C0043F4802313606F4B1B686E4A43F4803350
:10186C0013600BE06B4B1B686A4A23F480331360E4
:10187C00684B1B68674A23F4802313607B685B68A2
:10188C00002B13D0FFF7CCFC386108E0FFF7C8FC45
:10189C0002463B69D31A642B01D90323FAE15D4B51
:1018AC001B6803F40033002BF0D014E0FFF7B8FCF6
:1018BC00386108E0FFF7B4FC02463B69D31A642B8D
:1018CC0001D90323E6E1534B1B6803F40033002BCF
:1018DC00F0D100E000BF7B681B6803F00203002B13
:1018EC0063D04C4B5B6803F00C03002B0BD0494BC3
:1018FC005B6803F00C03082B1CD1464B5B6803F4AC
:10190C008033002B16D1434B1B6803F00203002BD2
:10191C0005D07B681B69012B01D00123BAE13D4B3B
:10192C001B6823F0F8027B685B69DB0039491343C1
:10193C000B603AE07B681B69002B20D0364B0122F0
:10194C001A60FFF76DFC386108E0FFF769FC02468E
:10195C003B69D31A022B01D903239BE12D4B1B6846
:10196C0003F00203002BF0D02A4B1B6823F0F80283
:10197C007B685B69DB00274913430B6015E0264B42
:10198C0000221A60FFF74CFC386108E0FFF748FCB6
:10199C0002463B69D31A022B01D903237AE11D4B72
:1019AC001B6803F00203002BF0D17B681B6803F06B
:1019BC000803002B3AD07B689B69002B19D0174B7E
:1019CC0001221A60FFF72CFC386108E0FFF728FCB5
:1019DC0002463B69D31A022B01D903235AE10D4B62
:1019EC005B6A03F00203002BF0D0012000F09AFA9E
:1019FC001CE00A4B00221A60FFF712FC38610FE062
:101A0C00FFF70EFC02463B69D31A022B08D90323BD
:101A1C0040E100BF001002400000424280044242FC
:101A2C009E4B5B6A03F00203002BE9D17B681B68B9
:101A3C0003F00403002B00F0A6800023FB75974BEA
:101A4C00DB6903F08053002B0DD1944BDB69934A77
:101A5C0043F08053D361914BDB6903F08053BB603F
:101A6C00BB680123FB758E4B1B6803F48073002B42
:101A7C0018D18B4B1B688A4A43F480731360FFF7B1
:101A8C00CFFB386108E0FFF7CBFB02463B69D31A6A
:101A9C00642B01D90323FDE0814B1B6803F4807395
:101AAC00002BF0D07B68DB68012B06D17B4B1B6ACB
:101ABC007A4A43F0010313622DE07B68DB68002B4C
:101ACC000CD1764B1B6A754A23F001031362734BDE
:101ADC001B6A724A23F0040313621CE07B68DB6808
:101AEC00052B0CD16D4B1B6A6C4A43F0040313623B
:101AFC006A4B1B6A694A43F0010313620BE0674BA4
:101B0C001B6A664A23F001031362644B1B6A634A27
:101B1C0023F0040313627B68DB68002B15D0FFF7FE
:101B2C007FFB38610AE0FFF77BFB02463B69D31A67
:101B3C0041F28832934201D90323ABE0574B1B6A25
:101B4C0003F00203002BEED014E0FFF769FB3861C1
:101B5C000AE0FFF765FB02463B69D31A41F2883273
:101B6C00934201D9032395E04C4B1B6A03F002030B
:101B7C00002BEED1FB7D012B05D1484BDB69474A8D
:101B8C0023F08053D3617B68DB69002B00F08180EC
:101B9C00424B5B6803F00C03082B61D07B68DB695C
:101BAC00022B46D13F4B00221A60FFF739FB3861FC
:101BBC0008E0FFF735FB02463B69D31A022B01D92B
:101BCC00032367E0354B1B6803F00073002BF0D147
:101BDC007B681B6AB3F5803F08D1304B5B6823F4FC
:101BEC0000327B689B682D4913434B602B4B5B6821
:101BFC0023F474127B68196A7B685B6A0B43274970
:101C0C0013434B60274B01221A60FFF709FB386125
:101C1C0008E0FFF705FB02463B69D31A022B01D9FA
:101C2C00032337E01D4B1B6803F00073002BF0D02F
:101C3C002FE01C4B00221A60FFF7F2FA386108E023
:101C4C00FFF7EEFA02463B69D31A022B01D90323A4
:101C5C0020E0124B1B6803F00073002BF0D118E04E
:101C6C007B68DB69012B01D1012313E00B4B5B6813
:101C7C00FB60FB6803F480327B681B6A9A4206D1D6
:101C8C00FB6803F470127B685B6A9A4201D00123F3
:101C9C0000E0002318461837BD4680BD00100240F6
:101CAC00007000406000424280B584B000AF7860A4
:101CBC0039607B68002B01D10123D0E06A4B1B6893
:101CCC0003F007033A689A4210D9674B1B6823F05C
:101CDC00070265493B6813430B60634B1B6803F0B9
:101CEC0007033A689A4201D00123B8E07B681B686D
:101CFC0003F00203002B20D07B681B6803F0040365
:101D0C00002B05D0594B5B68584A43F4E063536091
:101D1C007B681B6803F00803002B05D0534B5B68F2
:101D2C00524A43F460535360504B5B6823F0F0020B
:101D3C007B689B684D4913434B607B681B6803F0C1
:101D4C000103002B40D07B685B68012B07D1474B0C
:101D5C001B6803F40033002B15D101237FE07B6853
:101D6C005B68022B07D1414B1B6803F00073002BFF
:101D7C0009D1012373E03D4B1B6803F00203002BD8
:101D8C0001D101236BE0394B5B6823F003027B68C4
:101D9C005B68364913434B60FFF742FAF8600AE080
:101DAC00FFF73EFA0246FB68D31A41F2883293429F
:101DBC0001D9032353E02D4B5B6803F00C027B68C5
:101DCC005B689B009A42EBD1274B1B6803F007031F
:101DDC003A689A4210D2244B1B6823F0070222491E
:101DEC003B6813430B60204B1B6803F007033A68F6
:101DFC009A4201D0012332E07B681B6803F0040394
:101E0C00002B08D0194B5B6823F4E0627B68DB681D
:101E1C00164913434B607B681B6803F00803002BC7
:101E2C0009D0124B5B6823F460527B681B69DB00A2
:101E3C000E4913434B6000F021F802460B4B5B68D4
:101E4C001B0903F00F030A49CB5C22FA03F3094A7E
:101E5C001360094B1B681846FFF7A0F900231846BE
:101E6C001037BD4680BD00BF00200240001002406C
:101E7C0094270008240000202800002080B487B09C
:101E8C0000AF0023FB600023BB6000237B610023B9
:101E9C007B6000233B611E4B5B68FB60FB6803F0BF
:101EAC000C03042B02D0082B03D027E0194B3B6109
:101EBC0027E0FB689B0C03F00F03174AD35C7B6095
:101ECC00FB6803F48033002B10D0114B5B685B0C68
:101EDC0003F00103114AD35CBB607B680D4A02FB23
:101EEC0003F2BB68B2FBF3F37B6104E07B680C4A42
:101EFC0002FB03F37B617B693B6102E0054B3B61B9
:101F0C0000BF3B6918461C37BD4680BC704700BFFC
:101F1C000010024000127A00A4270008B427000821
:101F2C0000093D0080B485B000AF78600A4B1B6897
:101F3C000A4AA2FB03235B0A7A6802FB03F3FB60E9
:101F4C0000BFFB685A1EFA60002BF9D100BF00BF1E
:101F5C001437BD4680BC704724000020D34D62105E
:101F6C0080B582B000AF78607B68002B01D1012373
:101F7C0041E07B6893F83D30DBB2002B06D17B68E7
:101F8C00002283F83C207868FFF770F87B68022207
:101F9C0083F83D207B681A687B6804331946104629
:101FAC0000F056FA7B68012283F846207B680122F8
:101FBC0083F83E207B68012283F83F207B68012256
:101FCC0083F840207B68012283F841207B68012242
:101FDC0083F842207B68012283F843207B6801222E
:101FEC0083F844207B68012283F845207B6801221A
:101FFC0083F83D20002318460837BD4680BD0000FD
:10200C0080B485B000AF78607B6893F83D30DBB26C
:10201C00012B01D0012335E07B68022283F83D209F
:10202C007B681B68DA687B681B6842F00102DA6027
:10203C007B681B68164A934209D07B681B68B3F116
:10204C00804F04D07B681B68124A934211D17B6885
:10205C001B689B6803F00703FB60FB68062B10D022
:10206C007B681B681A687B681B6842F001021A6067
:10207C0007E07B681B681A687B681B6842F00102EA
:10208C001A60002318461437BD4680BC704700BF49
:10209C00002C01400004004080B584B000AF786093
:1020AC007B681B68DB68FB607B681B681B69BB601B
:1020BC00BB6803F00203002B20D0FB6803F0020383
:1020CC00002B1BD07B681B686FF002021A617B68C7
:1020DC0001221A777B681B689B6903F00303002BB2
:1020EC0003D0786800F098F905E0786800F08BF977
:1020FC00786800F09AF97B6800221A77BB6803F0C5
:10210C000403002B20D0FB6803F00403002B1BD02E
:10211C007B681B686FF004021A617B6802221A77D5
:10212C007B681B689B6903F44073002B03D07868B1
:10213C0000F072F905E0786800F065F9786800F055
:10214C0074F97B6800221A77BB6803F00803002B34
:10215C0020D0FB6803F00803002B1BD07B681B68A6
:10216C006FF008021A617B6804221A777B681B687F
:10217C00DB6903F00303002B03D0786800F04CF903
:10218C0005E0786800F03FF9786800F04EF97B685C
:10219C0000221A77BB6803F01003002B20D0FB68D9
:1021AC0003F01003002B1BD07B681B686FF0100230
:1021BC001A617B6808221A777B681B68DB6903F459
:1021CC004073002B03D0786800F026F905E078689E
:1021DC0000F019F9786800F028F97B6800221A776A
:1021EC00BB6803F00103002B0CD0FB6803F0010368
:1021FC00002B07D07B681B686FF001021A617868AE
:10220C00FEF7ECF8BB6803F08003002B0CD0FB68E6
:10221C0003F08003002B07D07B681B686FF08002F3
:10222C001A61786800F06FFABB6803F04003002B6A
:10223C000CD0FB6803F04003002B07D07B681B68B5
:10224C006FF040021A61786800F0F8F8BB6803F090
:10225C002003002B0CD0FB6803F02003002B07D0CD
:10226C007B681B686FF020021A61786800F042FAF4
:10227C0000BF1037BD4680BD80B584B000AF78601C
:10228C0039600023FB737B6893F83C30012B01D140
:10229C000223B4E07B68012283F83C207B68022295
:1022AC0083F83D207B681B689B68BB60BB6823F090
:1022BC007703BB60BB6823F47F43BB607B681B6800
:1022CC00BA689A603B681B68B3F5005F3ED0B3F503
:1022DC00005F00F28780B3F5805F00F08680B3F575
:1022EC00805F7FD8702B1AD0702B7BD8602B50D08E
:1022FC00602B77D8502B3CD0502B73D8402B58D018
:10230C00402B6FD8302B64D0302B6BD8202B60D067
:10231C00202B67D8002B5CD0102B5AD062E07B6846
:10232C0018683B6899683B685A683B68DB6800F042
:10233C006AF97B681B689B68BB60BB6843F07703DA
:10234C00BB607B681B68BA689A604FE07B68186852
:10235C003B6899683B685A683B68DB6800F053F946
:10236C007B681B689A687B681B6842F480429A60A1
:10237C003CE07B6818683B6859683B68DB681A4628
:10238C0000F0CAF87B681B685021184600F021F950
:10239C002CE07B6818683B6859683B68DB681A4618
:1023AC0000F0E8F87B681B686021184600F011F912
:1023BC001CE07B6818683B6859683B68DB681A4608
:1023CC0000F0AAF87B681B684021184600F001F960
:1023DC000CE07B681A683B681B681946104600F0D5
:1023EC00F8F803E00123FB7300E000BF7B680122D7
:1023FC0083F83D207B68002283F83C20FB7B184649
:10240C001037BD4680BD80B483B000AF786000BF8C
:10241C000C37BD4680BC704780B483B000AF786089
:10242C0000BF0C37BD4680BC704780B483B000AF92
:10243C00786000BF0C37BD4680BC704780B483B059
:10244C0000AF786000BF0C37BD4680BC7047000001
:10245C0080B485B000AF786039607B681B68FB6026
:10246C007B682B4A934207D07B68B3F1804F03D033
:10247C007B68284A934208D1FB6823F07003FB6009
:10248C003B685B68FA681343FB607B68204A9342A5
:10249C0007D07B68B3F1804F03D07B681D4A934211
:1024AC0008D1FB6823F44073FB603B68DB68FA6877
:1024BC001343FB60FB6823F080023B685B691343AA
:1024CC00FB607B68FA681A603B689A687B68DA6222
:1024DC003B681A687B689A627B680D4A934203D109
:1024EC003B681A697B681A637B6801225A617B68B6
:1024FC001B6903F00103002B05D07B681B6923F0DB
:10250C0001027B681A6100BF1437BD4680BC70475E
:10251C00002C01400004004080B487B000AFF8608C
:10252C00B9607A60FB681B6A7B61FB681B6A23F0ED
:10253C000102FB681A62FB689B693B613B6923F0F3
:10254C00F0033B617B681B013A6913433B617B6978
:10255C0023F00A037B617A69BB6813437B61FB68D8
:10256C003A699A61FB687A691A6200BF1C37BD46EA
:10257C0080BC704780B487B000AFF860B9607A60F7
:10258C00FB681B6A7B61FB681B6A23F01002FB680B
:10259C001A62FB689B693B613B6923F470433B61A6
:1025AC007B681B033A6913433B617B6923F0A003EF
:1025BC007B61BB681B017A6913437B61FB683A69D9
:1025CC009A61FB687A691A6200BF1C37BD4680BCF1
:1025DC00704780B485B000AF786039607B689B68C9
:1025EC00FB60FB6823F07003FB603A68FB681343E5
:1025FC0043F00703FB607B68FA689A6000BF1437EE
:10260C00BD4680BC704780B487B000AFF860B9603D
:10261C007A603B60FB689B687B617B6923F47F433A
:10262C007B613B681A027B681A43BB6813437A6967
:10263C0013437B61FB687A699A6000BF1C37BD4607
:10264C0080BC704780B485B000AF786039607B681F
:10265C0093F83C30012B01D1022341E07B6801222D
:10266C0083F83C207B68022283F83D207B681B6842
:10267C005B68FB607B681B689B68BB60FB6823F036
:10268C007003FB603B681B68FA681343FB607B6854
:10269C001B68FA685A607B681B68144A934209D01D
:1026AC007B681B68B3F1804F04D07B681B68104AB1
:1026BC0093420CD1BB6823F08003BB603B685B6822
:1026CC00BA681343BB607B681B68BA689A607B6806
:1026DC00012283F83D207B68002283F83C200023F4
:1026EC0018461437BD4680BC704700BF002C014013
:1026FC000004004080B483B000AF786000BF0C379A
:10270C00BD4680BC704780B483B000AF786000BF1A
:10271C000C37BD4680BC704770B500260C4D0D4C77
:10272C00641BA410A64209D100F022F800260A4D21
:10273C000A4C641BA410A64205D170BD55F8043B8D
:10274C0098470136EEE755F8043B98470136F2E717
:10275C00B8270008B8270008B8270008BC270008CD
:10276C0003460244934200D1704703F8011BF9E77A
:10277C00F8B500BFF8BC08BC9E467047F8B500BF62
:08278C00F8BC08BC9E46704732
:10279400000000000000000001020304060708090D
:1027A40002030405060708090A0B0C0D0E0F10108E
:0427B400010200001E
:0427B80031010008E3
:0427BC000D01000803
:1027C0000F000000080000003200000001000000BF
:1027D000020000000300000004000000183C6666D0
:1027E0007E7E666600127A00100000000100000084
:0400000508001131AD
:00000001FF
